:020000040800F2
:100000000050002065100008E50F0008ED0F000803
:10001000F50F0008FD0F00080510000800000000A3
:100020000000000000000000000000000D100008AB
:100030001910000800000000251000083110000809
:10004000AD100008AD100008AD100008AD1000089C
:10005000AD100008AD100008AD100008AD1000088C
:10006000AD100008AD100008AD100008AD1000087C
:10007000AD100008AD100008AD100008AD1000086C
:10008000AD100008AD100008AD100008AD1000085C
:10009000AD100008AD100008AD1000083D100008BC
:1000A000AD100008AD100008AD100008AD1000083C
:1000B000AD100008AD100008AD100008AD1000082C
:1000C000AD100008AD100008AD100008AD1000081C
:1000D000AD100008AD100008AD100008AD1000080C
:1000E000AD100008AD100008AD10000800000000C1
:1000F0000000000000000000000000000000000000
:0C01000000000000000000005FF808F1A3
:10010C0010B5054C237833B9044B13B10448AFF345
:10011C0000800123237010BD1C0000200000000093
:10012C004430000808B5034B1BB103490348AFF337
:10013C00008008BD000000002000002044300008B2
:10014C0080B500AF00F0AEFF00F052F800F03CF9C3
:10015C0000F08EF800F0E8F800F0B8F800F0BEFB04
:10016C000021182000F022FD01221B491B4800F041
:10017C00B1FD1E21192000F019FD01221849194862
:10018C0000F0A8FD2A21272000F010FD01221449BF
:10019C00154800F09FFD00F065FC40F6B83000F00B
:1001AC00E3FF00F0BCFD01220121104801F0A9FA87
:1001BC00012202210D4801F0A4FA012204210B486E
:1001CC0001F09FFA01220821084801F09AFA6420F4
:1001DC0000F0CAFFFBE700BF080000205C300008FD
:1001EC000000002064300008703000080008014056
:1001FC0080B590B000AF07F11803282200211846F3
:10020C0002F0EEFE3B1D00221A605A609A60DA6022
:10021C001A610223BB610123BB621023FB62022320
:10022C007B630023BB630023FB6307F118031846B1
:10023C0002F062F80346002B01D000F049FB0F23BB
:10024C007B600223BB600023FB604FF480633B6147
:10025C0000237B613B1D0021184602F0CFFA0346B8
:10026C00002B01D000F034FB00BF4037BD4680BDF1
:10027C0080B500AF124B134A1A60114B124A5A60E8
:10028C000F4B00229A600E4B0022DA600C4B4FF49D
:10029C0080421A610A4B00225A61094B00229A6172
:1002AC00074B0022DA61064B00221A62044801F067
:1002BC0059FA0346002B01D000F00AFB00BF80BDA9
:1002CC003800002000540040801A060080B500AFB2
:1002DC00124B134A1A60114B124A5A600F4B0022F0
:1002EC009A600E4B0022DA600C4B4FF480421A617C
:1002FC000A4B00225A61094B00229A61074B0022DB
:10030C00DA61064B00221A62044801F02BFA03460C
:10031C00002B01D000F0DCFA00BF80BD8C00002067
:10032C0000580040801A060080B586B000AF07F177
:10033C00080300221A605A609A60DA603B46002279
:10034C001A605A601E4B1F4A1A601D4B47225A6096
:10035C001B4B00229A601A4B4FF6FF72DA60184B57
:10036C0000221A61164B00225A61154B00229A6129
:10037C00134802F0BDFB0346002B01D000F0A8FA95
:10038C004FF48053BB6007F1080319460C4802F088
:10039C00FEFB0346002B01D000F09AFA00233B60D1
:1003AC0000237B603B461946054802F0BBFD034623
:1003BC00002B01D000F08CFA00BF1837BD4680BD71
:1003CC00E0000020002C014080B588B000AF07F1A0
:1003DC00100300221A605A609A60DA60394B9B69EC
:1003EC00384A43F020039361364B9B6903F020039A
:1003FC00FB60FB68334B9B69324A43F00403936107
:10040C00304B9B6903F00403BB60BB682D4B9B69AD
:10041C002C4A43F0080393612A4B9B6903F00803B1
:10042C007B607B68002240F20F21274801F069F9BC
:10043C0000224FF40071254801F063F940F20F23BC
:10044C003B6101237B610023BB610223FB6107F14C
:10045C00100319461C4800F0B9FFF0233B611C4BFC
:10046C007B610023BB6107F110031946164800F0AD
:10047C00ADFF4FF480733B6100237B610023BB61B4
:10048C0007F110031946104800F0A0FF4FF4007359
:10049C003B6101237B610023BB610223FB6107F1FC
:1004AC0010031946094800F091FF00220021172083
:1004BC0000F055FF172000F06EFF00BF2037BD463F
:1004CC0080BD00BF0010024000080140000C01403C
:1004DC000000111080B582B000AF0346FB8000F025
:1004EC0039FE0346924A1360914B1A68914B1B6874
:1004FC00D31A0A2B40F2BB818F4BF0221A608E4B21
:10050C0000225A608C4B00229A608B4B0222DA60DC
:10051C0089498A4800F05AFF01220121884801F0DC
:10052C00F0F800220221864801F0EBF800220421A9
:10053C00834801F0E6F800220821814801F0E1F837
:10054C00FB88102B0FD110217D4801F0C3F8034616
:10055C00002B08D07B4B44221A707A4B1B78184620
:10056C0000F098F937E0FB88202B0FD1202174483C
:10057C0001F0B0F80346002B08D0724B43221A70DE
:10058C00704B1B78184600F085F924E0FB88402B53
:10059C000FD140216A4801F09DF80346002B08D08A
:1005AC00684B42221A70674B1B78184600F072F9A0
:1005BC0011E0FB88802B0ED18021614801F08AF874
:1005CC000346002B07D05F4B41221A705D4B1B7802
:1005DC00184600F05FF900220121594801F091F80A
:1005EC0001220221564801F08CF8002204215448C3
:1005FC0001F087F800220821514801F082F8FB88AD
:10060C00102B0FD110214E4801F064F80346002B3B
:10061C0008D04C4B23221A704A4B1B78184600F01A
:10062C0039F937E0FB88202B0FD12021444801F009
:10063C0051F80346002B08D0424B39221A70414B1B
:10064C001B78184600F026F924E0FB88402B0FD1CC
:10065C0040213B4801F03EF80346002B08D0394BB3
:10066C0036221A70374B1B78184600F013F911E03C
:10067C00FB88802B0ED18021314801F02BF80346EA
:10068C00002B07D02F4B33221A702E4B1B78184699
:10069C0000F000F900220121294801F032F8002273
:1006AC000221274801F02DF801220421244801F0F1
:1006BC0028F800220821224801F023F8FB88102B8F
:1006CC000FD110211E4801F005F80346002B08D06D
:1006DC001C4B30221A701B4B1B78184600F0DAF8B2
:1006EC0044E0FB88202B0FD12021154800F0F2FFAD
:1006FC000346002B08D0134B38221A70114B1B7871
:10070C00184600F0C7F831E0FB88402B1CD1402183
:10071C000B4800F0DFFF0346002B15D0094B3522A8
:10072C001A70084B1B78184600F0B4F81EE000BF96
:10073C003C0100203801002028010020000C014061
:10074C000008014040010020FB88802B0ED1802145
:10075C00494800F0BFFF0346002B07D0474B32221D
:10076C001A70464B1B78184600F094F800220121B1
:10077C00414800F0C6FF002202213F4800F0C1FFB3
:10078C00002204213C4800F0BCFF012208213A4819
:10079C0000F0B7FFFB88102B0FD11021364800F06A
:1007AC0099FF0346002B08D0344B2A221A70334B86
:1007BC001B78184600F06EF837E0FB88202B0FD121
:1007CC0020212D4800F086FF0346002B08D02B4B30
:1007DC0037221A70294B1B78184600F05BF824E07E
:1007EC00FB88402B0FD14021234800F073FF0346B8
:1007FC00002B08D0214B34221A70204B1B78184642
:10080C0000F048F811E0FB88802B0ED180211A48AB
:10081C0000F060FF0346002B07D0184B31221A70F2
:10082C00164B1B78184600F035F8012201211248AE
:10083C0000F067FF012202210F4800F062FF012245
:10084C0004210D4800F05DFF012208210A4800F048
:10085C0058FF0B4B0B4A5A60094B02229A6008490D
:10086C00094800F0B3FD094B1B68094A136000BF2F
:10087C000837BD4680BD00BF000801404001002084
:10088C002801002000001110000C01403C01002048
:10089C003801002080B584B000AF78607B68DBB293
:1008AC003B7300237B7300F03AFA0021002000F028
:1008BC007DF907F10C0301220449184600F00AFAED
:1008CC0000F0D0F800BF1037BD4680BD08000020F6
:1008DC0080B400AF72B600BF00BFFDE780B582B038
:1008EC0000AF00F025FA44F62063012278215B4822
:1008FC0001F07AF90346002B01D00023A9E040F661
:10090C00C4137B6002E07B68013B7B607B68002B3F
:10091C00F9D1AE220021782000F084FA20220021A7
:10092C00782000F07FFA10220021782000F07AFA6B
:10093C00B0220021782000F075FAC822002178201E
:10094C0000F070FA00220021782000F06BFA1022DF
:10095C000021782000F066FA40220021782000F077
:10096C0061FA81220021782000F05CFAFF2200213C
:10097C00782000F057FAA1220021782000F052FADA
:10098C00A6220021782000F04DFAA8220021782020
:10099C0000F048FA3F220021782000F043FAA4220C
:1009AC000021782000F03EFAD3220021782000F0BC
:1009BC0039FA00220021782000F034FAD5220021E7
:1009CC00782000F02FFAF0220021782000F02AFA8B
:1009DC00D9220021782000F025FA2222002178204B
:1009EC0000F020FADA220021782000F01BFA122203
:1009FC000021782000F016FADB220021782000F08C
:100A0C0011FA20220021782000F00CFA8D2200210E
:100A1C00782000F007FA14220021782000F002FA66
:100A2C00AF220021782000F0FDF92E220021782041
:100A3C0000F0F8F9002000F043F800F013F8084B30
:100A4C0000221A80064B00225A80054B01225A7153
:100A5C00012318460837BD4680BD00BF3800002072
:100A6C004405002080B582B000AF0023FB711DE06F
:100A7C00FB79503BDBB21A460021782000F0D2F90A
:100A8C0000220021782000F0CDF9102200217820DE
:100A9C0000F0C8F9FB79DB01084A1A448023402195
:100AAC00782000F059F9FB790133FB71FB79072BA6
:100ABC00DED900BF00BF0837BD4680BD4401002011
:100ACC0080B582B000AF0346FB71FB79002B01D1DE
:100ADC00002300E0FF234FF480621946034802F024
:100AEC007FFA00BF0837BD4680BD00BF440100201F
:100AFC0080B483B000AF0346FB800B46BB8013462B
:100B0C00FB70FB887F2B48D8BB883F2B45D8254BE7
:100B1C001B79002B06D0FB78002B0CBF0123002384
:100B2C00DBB2FB70FB78012B1AD1FA88BB88DB088F
:100B3C0098B20346DB0113441B4AD35C5AB2BB8800
:100B4C0003F00703012101FA03F35BB2134359B21B
:100B5C00FA880346DB011344C9B2134AD1541DE091
:100B6C00FA88BB88DB0898B20346DB0113440E4AB3
:100B7C00D35C5AB2BB8803F00703012101FA03F3DB
:100B8C005BB2DB435BB2134059B2FA880346DB011C
:100B9C001344C9B2044AD15400E000BF0C37BD461F
:100BAC0080BC7047440500204401002080B483B011
:100BBC0000AF03460A46FB801346BB80054AFB8800
:100BCC001380044ABB88538000BF0C37BD4680BCE1
:100BDC00704700BF4405002080B586B000AF0346C7
:100BEC003960FB711346BB71394B1B881A463B6845
:100BFC001B7813447F2B07DC354B5B881A463B680C
:100C0C005B7813443F2B01DD00235DE000237B6107
:100C1C004BE03B685A68FB79203B3968497801FB0B
:100C2C0003F319467B690B445B0013441B88FB6080
:100C3C0000233B6130E0FA683B6902FA03F303F4EA
:100C4C000043002B10D0224B1A883B699BB21344F3
:100C5C0098B21F4B5A887B699BB213449BB2BA79EA
:100C6C001946FFF745FF14E0194B1A883B699BB2F4
:100C7C00134498B2164B5A887B699BB2134499B2B1
:100C8C00BB79002B0CBF01230023DBB21A46FFF704
:100C9C002FFF3B6901333B613B681B781A463B696C
:100CAC009342C8D37B6901337B613B685B781A46FE
:100CBC007B699342ADD3064B1B883A681278134478
:100CCC009AB2034B1A80FB7918461837BD4680BD83
:100CDC004405002080B584B000AFF860B9601346BD
:100CEC00FB7112E0FB681B78FA79B9681846FFF7BC
:100CFC0073FF03461A46FB681B789A4202D0FB68C6
:100D0C001B7808E0FB680133FB60FB681B78002B49
:100D1C00E8D1FB681B7818461037BD4680BD80B5FE
:100D2C0000AF0020FFF7CCFEFFF79CFE00BF80BD9C
:100D3C0080B483B000AF074B7B6002E07B68013B63
:100D4C007B607B68002BF9D100BF00BF0C37BD4620
:100D5C0080BC704790D0030090B5C7B002AF04467A
:100D6C00084607F58871A1F588710A60194607F5E0
:100D7C008873A3F2091322461A7007F58873A3F53A
:100D8C00857302461A7007F58873A3F586730A46B5
:100D9C001A8007F58873A3F5827307F58872A2F59C
:100DAC00857212781A70002387F80F3115E097F8C6
:100DBC000F3107F58872A2F5887212681A4497F8F9
:100DCC000F310133117807F58872A2F58272D15474
:100DDC0097F80F31013387F80F3197F80F319BB229
:100DEC0007F58872A2F5867212889A42DFD807F549
:100DFC008873A3F209131B7899B207F58873A3F5CE
:100E0C0086731B8801339BB207F10C020A200090F9
:100E1C00034800F0EBFD00BF07F58A77BD4690BD97
:100E2C003800002080B586B002AF0346FB710B463C
:100E3C00BB7113467B71BB793B737B797B73FB79FD
:100E4C0099B207F10C020A2300930223034800F025
:100E5C00CDFD00BF1037BD4680BD00BF380000205F
:100E6C0080B485B000AF154B9B69144A43F0010365
:100E7C009361124B9B6903F00103BB60BB680F4B82
:100E8C00DB690E4A43F08053D3610C4BDB6903F0F2
:100E9C0080537B607B680A4B5B68FB60FB6823F0CC
:100EAC00E063FB60FB6843F00073FB60044AFB6883
:100EBC00536000BF1437BD4680BC70470010024021
:100ECC000000014080B58AB000AF786007F11803CC
:100EDC0000221A605A609A60DA607B681B682B4AA1
:100EEC00934224D12A4B9B69294A43F0080393610E
:100EFC00274B9B6903F008037B617B69C023BB61B3
:100F0C001223FB6103237B6207F118031946214866
:100F1C0000F05CFA1E4BDB691D4A43F40013D361ED
:100F2C001B4BDB6903F400133B613B6929E07B68D5
:100F3C001B68194A934224D1154B9B69144A43F000
:100F4C0008039361124B9B6903F00803FB60FB6879
:100F5C004FF44063BB611223FB6103237B6207F1F7
:100F6C00180319460B4800F031FA094BDB69084AA3
:100F7C0043F48003D361064BDB6903F48003BB604D
:100F8C00BB6800BF2837BD4680BD00BF0054004081
:100F9C0000100240000C01400058004080B485B0A5
:100FAC0000AF78607B681B68094A93420BD1094BF0
:100FBC009B69084A43F400639361064B9B6903F4F5
:100FCC000063FB60FB6800BF1437BD4680BC7047F4
:100FDC00002C01400010024080B400AF00BFFDE7C0
:100FEC0080B400AF00BFFDE780B400AF00BFFDE7E9
:100FFC0080B400AF00BFFDE780B400AF00BFFDE7D9
:10100C0080B400AF00BFBD4680BC704780B400AF59
:10101C0000BFBD4680BC704780B400AF00BFBD466A
:10102C0080BC704780B500AF00F082F800BF80BD77
:10103C0080B500AF202000F07DFB402000F07AFB53
:10104C00802000F077FB00BF80BD80B400AF00BFF4
:10105C00BD4680BC70470000FFF7F7FF0B480C49FA
:10106C000C4A002302E0D458C4500433C4188C42F8
:10107C00F9D3094A094C002301E013600432A2425F
:10108C00FBD301F0B5FFFFF75BF8704700000020C1
:10109C001C000020844B00081C0000205005002080
:1010AC00FEE7000080B500AF084B1B68074A43F011
:1010BC0010031360032000F047F90F2000F008F82C
:1010CC00FFF7CEFE0023184680BD00BF0020024073
:1010DC0080B582B000AF7860124B1A68124B1B7847
:1010EC0019464FF47A73B3FBF1F3B2FBF3F31846E2
:1010FC0000F05FF90346002B01D001230EE07B6862
:10110C000F2B0AD8002279684FF0FF3000F027F936
:10111C00064A7B681360002300E001231846083759
:10112C00BD4680BD100000201800002014000020D7
:10113C0080B400AF054B1B781A46054B1B68134453
:10114C00034A136000BFBD4680BC704718000020E6
:10115C004C05002080B400AF024B1B681846BD46FE
:10116C0080BC70474C05002080B584B000AF78601F
:10117C00FFF7F0FFB8607B68FB60FB68B3F1FF3FE3
:10118C0005D00A4B1B781A46FB681344FB6000BF62
:10119C00FFF7E0FF0246BB68D31AFA689A42F7D809
:1011AC0000BF00BF1037BD4680BD00BF1800002037
:1011BC0080B485B000AF78607B6803F00703FB60F8
:1011CC000C4BDB68BB60BA684FF6FF031340BB6087
:1011DC00FB681A02BB68134343F0BF6343F400334C
:1011EC00BB60044ABB68D36000BF1437BD4680BCEB
:1011FC00704700BF00ED00E080B400AF044BDB682B
:10120C001B0A03F007031846BD4680BC704700BF9D
:10121C0000ED00E080B483B000AF0346FB7197F99A
:10122C000730002B0BDBFB7903F01F02064997F903
:10123C0007305B09012000FA02F241F8232000BFBD
:10124C000C37BD4680BC704700E100E080B483B031
:10125C0000AF03463960FB7197F90730002B0ADBAE
:10126C003B68DAB20C4997F907301201D2B20B4441
:10127C0083F800230AE03B68DAB20849FB7903F0F3
:10128C000F03043B1201D2B20B441A7600BF0C3789
:10129C00BD4680BC704700BF00E100E000ED00E0FF
:1012AC0080B489B000AFF860B9607A60FB6803F075
:1012BC000703FB61FB69C3F10703042B28BF04235D
:1012CC00BB61FB690433062B02D9FB69033B00E0CD
:1012DC0000237B614FF0FF32BB6902FA03F3DA4360
:1012EC00BB681A407B699A404FF0FF317B6901FA69
:1012FC0003F3D9437B680B40134318462437BD4690
:10130C0080BC704780B582B000AF78607B68013BD1
:10131C00B3F1807F01D301230FE00A4A7B68013BC4
:10132C0053600F214FF0FF30FFF790FF054B002269
:10133C009A60044B07221A60002318460837BD46F2
:10134C0080BD00BF10E000E080B582B000AF7860D7
:10135C007868FFF72DFF00BF0837BD4680BD80B50C
:10136C0086B000AF0346B9607A60FB7300237B61E3
:10137C00FFF742FF78617A68B9687869FFF790FFE8
:10138C00024697F90F3011461846FFF75FFF00BF72
:10139C001837BD4680BD80B582B000AF0346FB71E7
:1013AC0097F907301846FFF735FF00BF0837BD46E1
:1013BC0080BD80B582B000AF78607868FFF7A2FF7F
:1013CC00034618460837BD4680BD000080B48BB07C
:1013DC0000AF7860396000237B6200233B6269E1D7
:1013EC0001227B6A02FA03F3FB613B681B68FA6912
:1013FC001340BB61BA69FB699A4240F058813B6863
:10140C005B689A4A93425ED0984A934275D8984A40
:10141C00934258D0964A93426FD8964A934252D0F0
:10142C00944A934269D8944A93424CD0924A93423C
:10143C0063D8924A934246D0904A93425DD8122B7D
:10144C002AD8122B59D801A252F823F0D314000831
:10145C00AD140008BF14000801150008071500089A
:10146C0007150008071500080715000807150008E0
:10147C0007150008071500080715000807150008D0
:10148C0007150008071500080715000807150008C0
:10149C00B5140008C9140008794A934213D02CE003
:1014AC003B68DB683B6229E03B68DB6804333B62EA
:1014BC0024E03B68DB6808333B621FE03B68DB6879
:1014CC000C333B621AE03B689B68002B02D104236F
:1014DC003B6213E03B689B68012B05D108233B6200
:1014EC007B68FA691A6109E008233B627B68FA6938
:1014FC005A6103E000233B6200E000BFBB69FF2B95
:10150C0001D87B6801E07B6804337B61BB69FF2BEE
:10151C0002D87B6A9B0002E07B6A083B9B003B6124
:10152C007B691A680F213B6901FA03F3DB431A400C
:10153C00396A3B6901FA03F31A437B691A603B6809
:10154C005B6803F08053002B00F0B1804D4B9B691E
:10155C004C4A43F0010393614A4B9B6903F001032E
:10156C00BB60BB68484A7B6A9B08023352F8233045
:10157C00FB607B6A03F003039B000F2202FA03F368
:10158C00DB43FA681340FB607B68404A934213D0FC
:10159C007B683F4A93420DD07B683E4A934207D00A
:1015AC007B683D4A934201D1032306E0042304E007
:1015BC00022302E0012300E000237A6A02F0030216
:1015CC0092009340FA681343FB602F497B6A9B0897
:1015DC000233FA6841F823203B685B6803F48013FC
:1015EC00002B06D02D4B9A682C49BB6913438B609A
:1015FC0006E02A4B9A68BB69DB43284913408B6091
:10160C003B685B6803F40013002B06D0234BDA68AD
:10161C002249BB691343CB6006E0204BDA68BB69F7
:10162C00DB431E491340CB603B685B6803F400331B
:10163C00002B06D0194B5A681849BB6913434B60F1
:10164C0006E0164B5A68BB69DB43144913404B60E8
:10165C003B685B6803F48033002B21D00F4B1A6876
:10166C000E49BB6913430B6021E000BF0000321030
:10167C000000311000002210000021100000121098
:10168C000000111000100240000001400008014051
:10169C00000C014000100140001401400004014006
:1016AC000B4B1A68BB69DB43094913400B607B6A1F
:1016BC0001337B623B681A687B6A22FA03F3002BC6
:1016CC007FF48EAE00BF00BF2C37BD4680BC704788
:1016DC000004014080B485B000AF78600B467B807D
:1016EC007B689A687B881340002B02D00123FB7324
:1016FC0001E00023FB73FB7B18461437BD4680BC0E
:10170C00704780B483B000AF78600B467B80134683
:10171C007B707B78002B03D07A887B681A6103E09E
:10172C007B881A047B681A6100BF0C37BD4680BCED
:10173C007047000080B582B000AF0346FB80084BB9
:10174C005A69FB881340002B06D0054AFB8853616D
:10175C00FB881846FEF7BEFE00BF0837BD4680BDAD
:10176C000004014080B584B000AF78607B68002B2A
:10177C0001D101232BE17B6893F83D30DBB2002BC8
:10178C0006D17B68002283F83C207868FFF79AFB2F
:10179C007B68242283F83D207B681B681A687B6871
:1017AC001B6822F001021A607B681B681A687B6850
:1017BC001B6842F400421A607B681B681A687B68DD
:1017CC001B6822F400421A6001F060F9F8607B6833
:1017DC005B68814A934207D8FB68804A934294BF66
:1017EC0001230023DBB206E0FB687D4A934294BFE1
:1017FC0001230023DBB2002B01D00123E7E0FB68BF
:10180C00784AA2FB03239B0CBB607B681B685B685C
:10181C0023F03F017B681B68BA680A435A607B68F7
:10182C001B681B6A23F03F017B685B686A4A934222
:10183C0002D8BB68013309E0BB684FF4967202FB17
:10184C0003F3694AA2FB03239B0901337A681268EC
:10185C000B4313627B681B68DB6923F44F4222F055
:10186C00FF027B685B685C498B4219D8FB68591E88
:10187C007B685B685B00B1FBF3F3591C40F6FC73AF
:10188C000B40002B0AD0FB68591E7B685B685B0021
:10189C00B1FBF3F30133C3F30B0351E004234FE02B
:1018AC007B689B68002B11D1FB68581E7B685968BC
:1018BC000B465B000B44B0FBF3F30133C3F30B0398
:1018CC00002B0CBF01230023DBB212E0FB68581E77
:1018DC007B6859680B469B000B4499000B44B0FB8A
:1018EC00F3F30133C3F30B03002B0CBF01230023D1
:1018FC00DBB2002B01D0012322E07B689B68002B1C
:10190C000ED1FB68581E7B6859680B465B000B4474
:10191C00B0FBF3F30133C3F30B0343F400430FE0C9
:10192C00FB68581E7B6859680B469B000B4499005A
:10193C000B44B0FBF3F30133C3F30B0343F4404309
:10194C00796809681343CB617B681B681B6823F0BB
:10195C00C0017B68DA697B681B6A1A437B681B6869
:10196C000A431A607B681B689B6823F4034323F0CB
:10197C00FF037A6811697A68D26811437A68126831
:10198C000B4393607B681B68DB6823F0FF017B686B
:10199C005A697B689B691A437B681B680A43DA6047
:1019AC007B681B681A687B681B6842F001021A602E
:1019BC007B6800221A647B68202283F83D207B68B8
:1019CC0000221A637B68002283F83E20002318460D
:1019DC001037BD4680BD00BFA08601007F841E006D
:1019EC00FF083D0083DE1B43D34D621080B588B0E9
:1019FC0002AFF8607A601A460B467B8113463B8136
:101A0C00FFF7A8FB7861FB6893F83D30DBB2202B25
:101A1C0040F0E0807B690093192301227049F8683B
:101A2C0000F092FA0346002B01D00223D3E0FB68AE
:101A3C0093F83C30012B01D10223CCE0FB6801224E
:101A4C0083F83C20FB681B681B6803F00103012B27
:101A5C0007D0FB681B681A68FB681B6842F0010220
:101A6C001A60FB681B681A68FB681B6822F400622A
:101A7C001A60FB68212283F83D20FB68102283F852
:101A8C003E20FB6800221A64FB687A685A62FB6885
:101A9C003A895A85FB685B8D9AB2FB681A85FB689C
:101AAC00504ADA6279897B693A6AF86800F0CAF9B7
:101ABC000346002B01D001238DE000233B61FB6822
:101ACC001B685B693B61FB681B689B693B613B69FD
:101ADC0066E07A69396AF86800F050FB0346002B1F
:101AEC000DD0FB681B6C042B07D1FB681B681A68B4
:101AFC00FB681B6842F400721A6001236BE0FB6800
:101B0C005B6A1A78FB681B681A61FB685B6A5A1C73
:101B1C00FB685A62FB685B8D9BB2013B9AB2FB6817
:101B2C005A85FB681B8D013B9AB2FB681A85FB68D2
:101B3C001B685B6903F00403042B1BD1FB681B8D32
:101B4C00002B17D0FB685B6A1A78FB681B681A615C
:101B5C00FB685B6A5A1CFB685A62FB685B8D9BB224
:101B6C00013B9AB2FB685A85FB681B8D013B9AB20C
:101B7C00FB681A857A69396AF86800F047FB0346F6
:101B8C00002B0DD0FB681B6C042B07D1FB681B686A
:101B9C001A68FB681B6842F400721A6001231AE091
:101BAC00FB681B8D002B94D1FB681B681A68FB68C3
:101BBC001B6842F400721A60FB68202283F83D20F7
:101BCC00FB68002283F83E20FB68002283F83C204F
:101BDC00002300E0022318461837BD4680BD00BF25
:101BEC00020010000000FFFF80B58AB002AFF86061
:101BFC007A603B600B467B81FFF7ACFAF8610023FF
:101C0C00BB61FB6893F83D30DBB2202B40F01181B7
:101C1C00FB690093192301228849F86800F094F9B4
:101C2C000346002B01D0022304E1FB6893F83C30FF
:101C3C00012B01D10223FDE0FB68012283F83C203B
:101C4C00FB681B681B6803F00103012B07D0FB68C2
:101C5C001B681A68FB681B6842F001021A60FB687B
:101C6C001B681A68FB681B6822F400621A60FB6828
:101C7C00242283F83D20FB6800221A64FB68704A1A
:101C8C00DA62FB681B681A68FB681B6842F4807296
:101C9C001A60FB6900933B6800224FF00111F86851
:101CAC0000F052F90346002B0DD0FB681B681B6833
:101CBC0003F48073B3F5807F03D1FB684FF400729B
:101CCC001A640323B6E07B89DBB21A46FB681B68F7
:101CDC0002F0FE021A61FFF73DFAF861FB681B681F
:101CEC005B6903F00203022B0CBF01230023DBB260
:101CFC00FB75FB681B685B6903F48063B3F5806F4D
:101D0C000CBF01230023DBB2BB7525E0FFF722FAE1
:101D1C000246FB69D31A3A689A4202D33B68002BFD
:101D2C0003D1FB68A02283F83D20FB681B685B692C
:101D3C0003F00203022B0CBF01230023DBB2FB7563
:101D4C00FB681B685B6903F48063B3F5806F0CBFA1
:101D5C0001230023DBB2BB75FB6893F83D30DBB28B
:101D6C00A02B05D0FB7D002B02D1BB7D002BCDD051
:101D7C00FB68202283F83D20FB681B685B6903F03D
:101D8C000203022B29D1FB681B681A68FB681B68CD
:101D9C0042F400721A6000233B61FB681B685B69AC
:101DAC003B61FB681B689B693B613B69FB6900936A
:101DBC00192301222149F86800F0C6F80346002BCC
:101DCC0001D0012336E0FB68202283F83D20FB681C
:101DDC00002283F83C2000232CE0FB681B681A6867
:101DEC00FB681B6842F400721A60FB681B686FF496
:101DFC0080625A61FB690093192301220F49F8682C
:101E0C0000F0A2F80346002B01D0012312E0BB69BD
:101E1C000133BB61BA697B689A42FFF432AFFB684D
:101E2C00202283F83D20FB68002283F83C2001230C
:101E3C0000E0022318462037BD4680BD020010008A
:101E4C000000FFFF80B588B002AFF8607A603B609D
:101E5C000B467B81FB68DB6A7B617B69082B06D0B8
:101E6C007B69012B03D07B6913F5803F08D1FB689C
:101E7C001B681A68FB681B6842F480721A600BE0DE
:101E8C00FB681B6B122B07D1FB681B681A68FB687D
:101E9C001B6842F480721A603B6800937B680022D6
:101EAC004FF00111F86800F04FF80346002B0DD0ED
:101EBC00FB681B681B6803F48073B3F5807F03D148
:101ECC00FB684FF400721A64032335E0FB681B694E
:101EDC00B3F5804F08D17B89DBB21A46FB681B68CF
:101EEC0002F0FE021A611BE07B89DB11DBB203F00E
:101EFC000603DBB263F00F03DAB2FB681B681A61EE
:101F0C003B687A680E49F86800F098F80346002B95
:101F1C0001D0012310E07B89DAB2FB681B681A61DF
:101F2C003B687A680749F86800F088F80346002B8C
:101F3C0001D0012300E0002318461837BD4680BDB0
:101F4C00080001000200010080B584B000AFF86009
:101F5C00B9603B601346FB7148E03B68B3F1FF3F4F
:101F6C0044D0FFF7F7F80246BB69D31A3A689A4295
:101F7C0002D33B68002B39D1BB681B0CDBB2012BA5
:101F8C000DD1FB681B685B69DA43BB6813409BB2DD
:101F9C00002B0CBF01230023DBB21A460CE0FB68BC
:101FAC001B689B69DA43BB6813409BB2002B0CBFC8
:101FBC0001230023DBB21A46FB799A4216D1FB6847
:101FCC0000221A63FB68202283F83D20FB68002264
:101FDC0083F83E20FB681B6C43F02002FB681A64FC
:101FEC00FB68002283F83C20012323E0BB681B0C18
:101FFC00DBB2012B0DD1FB681B685B69DA43BB6854
:10200C0013409BB2002B0CBF01230023DBB21A46FA
:10201C000CE0FB681B689B69DA43BB6813409BB2FE
:10202C00002B0CBF01230023DBB21A46FB799A422A
:10203C0093D0002318461037BD4680BD80B584B0C0
:10204C0000AFF860B9607A603B6071E0FB681B68B8
:10205C005B6903F48063B3F5806F23D1FB681B6865
:10206C001A68FB681B6842F400721A60FB681B68F4
:10207C006FF480625A61FB6800221A63FB682022AD
:10208C0083F83D20FB68002283F83E20FB681B6C24
:10209C0043F00402FB681A64FB68002283F83C20BE
:1020AC00012367E07B68B3F1FF3F41D0FFF752F8A3
:1020BC0002463B68D31A7A689A4202D37B68002B9B
:1020CC0036D1BB681B0CDBB2012B0CD1FB681B6837
:1020DC005B69DA43BB6813409BB2002B14BF01232E
:1020EC000023DBB20BE0FB681B689B69DA43BB681F
:1020FC0013409BB2002B14BF01230023DBB2002B37
:10210C0016D0FB6800221A63FB68202283F83D205E
:10211C00FB68002283F83E20FB681B6C43F0200216
:10212C00FB681A64FB68002283F83C20012321E041
:10213C00BB681B0CDBB2012B0CD1FB681B685B6909
:10214C00DA43BB6813409BB2002B14BF012300235E
:10215C00DBB20BE0FB681B689B69DA43BB6813407E
:10216C009BB2002B14BF01230023DBB2002B7FF4A6
:10217C006DAF002318461037BD4680BD80B584B0C6
:10218C0000AFF860B9607A6034E0F86800F086F867
:10219C000346002B01D0012334E0BB68B3F1FF3FB1
:1021AC0028D0FEF7D7FF02467B68D31ABA689A424A
:1021BC0002D3BB68002B1DD1FB681B685B6903F065
:1021CC008003802B16D0FB6800221A63FB68202248
:1021DC0083F83D20FB68002283F83E20FB681B6CD3
:1021EC0043F02002FB681A64FB68002283F83C2051
:1021FC00012307E0FB681B685B6903F08003802BFD
:10220C00C3D1002318461037BD4680BD80B584B0BD
:10221C0000AFF860B9607A6034E0F86800F03EF81E
:10222C000346002B01D0012334E0BB68B3F1FF3F20
:10223C0028D0FEF78FFF02467B68D31ABA689A4201
:10224C0002D3BB68002B1DD1FB681B685B6903F0D4
:10225C000403042B16D0FB6800221A63FB682022AF
:10226C0083F83D20FB68002283F83E20FB681B6C42
:10227C0043F02002FB681A64FB68002283F83C20C0
:10228C00012307E0FB681B685B6903F00403042B64
:10229C00C3D1002318461037BD4680BD80B483B02F
:1022AC0000AF78607B681B685B6903F48063B3F5EF
:1022BC00806F1BD17B681B686FF480625A617B68EE
:1022CC0000221A637B68202283F83D207B68002261
:1022DC0083F83E207B681B6C43F004027B681A6415
:1022EC007B68002283F83C20012300E00023184681
:1022FC000C37BD4680BC704780B586B000AF7860A7
:10230C007B68002B01D1012372E27B681B6803F010
:10231C000103002B00F08780924B5B6803F00C03E9
:10232C00042B0CD08F4B5B6803F00C03082B12D1E1
:10233C008C4B5B6803F48033B3F5803F0BD1894B36
:10234C001B6803F40033002B6CD07B685B68002B9C
:10235C0068D101234CE27B685B68B3F5803F06D102
:10236C00804B1B687F4A43F4803313602EE07B68FC
:10237C005B68002B0CD17B4B1B687A4A23F48033AF
:10238C001360784B1B68774A23F4802313601DE09D
:10239C007B685B68B3F5A02F0CD1724B1B68714A3C
:1023AC0043F4802313606F4B1B686E4A43F48033F5
:1023BC0013600BE06B4B1B686A4A23F48033136089
:1023CC00684B1B68674A23F4802313607B685B6847
:1023DC00002B13D0FEF7BEFE386108E0FEF7BAFE04
:1023EC0002463B69D31A642B01D9032300E25D4BEF
:1023FC001B6803F40033002BF0D014E0FEF7AAFEA8
:10240C00386108E0FEF7A6FE02463B69D31A642B3E
:10241C0001D90323ECE1534B1B6803F40033002B6D
:10242C00F0D100E000BF7B681B6803F00203002BB7
:10243C0063D04C4B5B6803F00C03002B0BD0494B67
:10244C005B6803F00C03082B1CD1464B5B6803F450
:10245C008033002B16D1434B1B6803F00203002B77
:10246C0005D07B681B69012B01D00123C0E13D4BDA
:10247C001B6823F0F8027B685B69DB003949134366
:10248C000B603AE07B681B69002B20D0364B012295
:10249C001A60FEF75FFE386108E0FEF75BFE02464D
:1024AC003B69D31A022B01D90323A1E12D4B1B68E5
:1024BC0003F00203002BF0D02A4B1B6823F0F80228
:1024CC007B685B69DB00274913430B6015E0264BE7
:1024DC0000221A60FEF73EFE386108E0FEF73AFE75
:1024EC0002463B69D31A022B01D9032380E11D4B11
:1024FC001B6803F00203002BF0D17B681B6803F010
:10250C000803002B3AD07B689B69002B19D0174B22
:10251C0001221A60FEF71EFE386108E0FEF71AFE73
:10252C0002463B69D31A022B01D9032360E10D4B00
:10253C005B6A03F00203002BF0D0012000F0BAFA22
:10254C001CE00A4B00221A60FEF704FE38610FE013
:10255C00FEF700FE02463B69D31A022B08D903236F
:10256C0046E100BF0010024000004242800442429B
:10257C00924B5B6A03F00203002BE9D17B681B686A
:10258C0003F00403002B00F0A6800023FB758B4B9B
:10259C00DB6903F08053002B0DD1884BDB69874A34
:1025AC0043F08053D361854BDB6903F08053BB60F0
:1025BC00BB680123FB75824B1B6803F48073002BF3
:1025CC0018D17F4B1B687E4A43F480731360FEF76F
:1025DC00C1FD386108E0FEF7BDFD02463B69D31A28
:1025EC00642B01D9032303E1754B1B6803F480733F
:1025FC00002BF0D07B68DB68012B06D16F4B1B6A7C
:10260C006E4A43F0010313622DE07B68DB68002BFC
:10261C000CD16A4B1B6A694A23F001031362674BA6
:10262C001B6A664A23F0040313621CE07B68DB68B8
:10263C00052B0CD1614B1B6A604A43F004031362F7
:10264C005E4B1B6A5D4A43F0010313620BE05B4B6C
:10265C001B6A5A4A23F001031362584B1B6A574AF0
:10266C0023F0040313627B68DB68002B15D0FEF7A4
:10267C0071FD38610AE0FEF76DFD02463B69D31A25
:10268C0041F28832934201D90323B1E04B4B1B6AD0
:10269C0003F00203002BEED014E0FEF75BFD386173
:1026AC000AE0FEF757FD02463B69D31A41F2883225
:1026BC00934201D903239BE0404B1B6A03F00203B6
:1026CC00002BEED1FB7D012B05D13C4BDB693B4A4A
:1026DC0023F08053D3617B68DB69002B00F087808B
:1026EC00364B5B6803F00C03082B61D07B68DB690D
:1026FC00022B46D1334B00221A60FEF72BFD3861BA
:10270C0008E0FEF727FD02463B69D31A022B01D9DC
:10271C0003236DE0294B1B6803F00073002BF0D1F1
:10272C007B681B6AB3F5803F08D1244B5B6823F4AC
:10273C0000327B689B68214913434B601F4B5B68DD
:10274C0023F474127B68196A7B685B6A0B431B4920
:10275C0013434B601B4B01221A60FEF7FBFC3861E4
:10276C0008E0FEF7F7FC02463B69D31A022B01D9AD
:10277C0003233DE0114B1B6803F00073002BF0D0DA
:10278C0035E0104B00221A60FEF7E4FC386108E0DB
:10279C00FEF7E0FC02463B69D31A022B01D9032356
:1027AC0026E0064B1B6803F00073002BF0D11EE0F3
:1027BC007B68DB69012B07D1012319E00010024073
:1027CC0000700040600042420B4B5B68FB60FB6892
:1027DC0003F480327B681B6A9A4206D1FB6803F4CF
:1027EC0070127B685B6A9A4201D0012300E00023DF
:1027FC0018461837BD4680BD0010024080B584B025
:10280C0000AF786039607B68002B01D10123D0E0E8
:10281C006A4B1B6803F007033A689A4210D9674B5E
:10282C001B6823F0070265493B6813430B60634B3D
:10283C001B6803F007033A689A4201D00123B8E001
:10284C007B681B6803F00203002B20D07B681B689D
:10285C0003F00403002B05D0594B5B68584A43F432
:10286C00E06353607B681B6803F00803002B05D002
:10287C00534B5B68524A43F460535360504B5B6854
:10288C0023F0F0027B689B684D4913434B607B68D7
:10289C001B6803F00103002B40D07B685B68012BA5
:1028AC0007D1474B1B6803F40033002B15D10123D0
:1028BC007FE07B685B68022B07D1414B1B6803F000
:1028CC000073002B09D1012373E03D4B1B6803F00F
:1028DC000203002B01D101236BE0394B5B6823F021
:1028EC0003027B685B68364913434B60FEF732FC8E
:1028FC00F8600AE0FEF72EFC0246FB68D31A41F2A0
:10290C008832934201D9032353E02D4B5B6803F0CB
:10291C000C027B685B689B009A42EBD1274B1B68CF
:10292C0003F007033A689A4210D2244B1B6823F039
:10293C00070222493B6813430B60204B1B6803F0D2
:10294C0007033A689A4201D0012332E07B681B6886
:10295C0003F00403002B08D0194B5B6823F4E062EE
:10296C007B68DB68164913434B607B681B6803F07C
:10297C000803002B09D0124B5B6823F460527B6870
:10298C001B69DB000E4913434B6000F021F8024633
:10299C000B4B5B681B0903F00F030A49CB5C22FA53
:1029AC0003F3094A1360094B1B681846FEF790FBAA
:1029BC00002318461037BD4680BD00BF00200240E2
:1029CC0000100240504B00081000002014000020A2
:1029DC0080B487B000AF0023FB600023BB600023F2
:1029EC007B6100237B6000233B611E4B5B68FB60BB
:1029FC00FB6803F00C03042B02D0082B03D027E058
:102A0C00194B3B6127E0FB689B0C03F00F03174A43
:102A1C00D35C7B60FB6803F48033002B10D0114B2C
:102A2C005B685B0C03F00103114AD35CBB607B68F1
:102A3C000D4A03FB02F2BB68B2FBF3F37B6104E0CB
:102A4C007B680C4A02FB03F37B617B693B6102E010
:102A5C00054B3B6100BF3B6918461C37BD4680BC2B
:102A6C00704700BF0010024000127A00684B00084B
:102A7C00784B000800093D0080B400AF024B1B6886
:102A8C001846BD4680BC70471000002080B500AFD2
:102A9C00FFF7F2FF0246054B5B681B0A03F00703C6
:102AAC000349CB5C22FA03F3184680BD00100240A8
:102ABC00604B000880B485B000AF78600A4B1B688F
:102ACC000A4AA2FB03235B0A7A6802FB03F3FB604E
:102ADC0000BFFB685A1EFA60002BF9D100BF00BF83
:102AEC001437BD4680BC704710000020D34D6210D7
:102AFC0080B582B000AF78607B68002B01D10123D8
:102B0C0041E07B6893F83D30DBB2002B06D17B684B
:102B1C00002283F83C207868FEF740FA7B6802229A
:102B2C0083F83D207B681A687B680433194610468D
:102B3C0000F0F4F87B68012283F846207B680122C0
:102B4C0083F83E207B68012283F83F207B680122BA
:102B5C0083F840207B68012283F841207B680122A6
:102B6C0083F842207B68012283F843207B68012292
:102B7C0083F844207B68012283F845207B6801227E
:102B8C0083F83D20002318460837BD4680BD80B52C
:102B9C0084B000AF786039600023FB737B6893F8D6
:102BAC003C30012B01D10223B4E07B68012283F875
:102BBC003C207B68022283F83D207B681B689B6865
:102BCC00BB60BB6823F07703BB60BB6823F47F4317
:102BDC00BB607B681B68BA689A603B681B68B3F57E
:102BEC00005F3ED0B3F5005F00F28780B3F5805FE5
:102BFC0000F08680B3F5805F7FD8702B1AD0702BD5
:102C0C007BD8602B50D0602B77D8502B3CD0502BDE
:102C1C0073D8402B58D0402B6FD8302B64D0302B2E
:102C2C006BD8202B60D0202B67D8002B5CD0102BBE
:102C3C005AD062E07B6818683B6899683B685A68B0
:102C4C003B68DB6800F04FF97B681B689B68BB60D6
:102C5C00BB6843F07703BB607B681B68BA689A60FB
:102C6C004FE07B6818683B6899683B685A683B681A
:102C7C00DB6800F038F97B681B689A687B681B6816
:102C8C0042F480429A603CE07B6818683B68596863
:102C9C003B68DB681A4600F0AFF87B681B68502174
:102CAC00184600F006F92CE07B6818683B685968F8
:102CBC003B68DB681A4600F0CDF87B681B68602126
:102CCC00184600F0F6F81CE07B6818683B685968F9
:102CDC003B68DB681A4600F08FF87B681B68402164
:102CEC00184600F0E6F80CE07B681A683B681B6835
:102CFC001946104600F0DDF803E00123FB7300E0F9
:102D0C0000BF7B68012283F83D207B68002283F89A
:102D1C003C20FB7B18461037BD4680BD80B485B087
:102D2C0000AF786039607B681B68FB607B682F4A5A
:102D3C0093420BD07B68B3F1804F07D07B682C4A51
:102D4C00934203D07B682B4A934208D1FB6823F053
:102D5C007003FB603B685B68FA681343FB607B683D
:102D6C00224A93420BD07B68B3F1804F07D07B682B
:102D7C001F4A934203D07B681E4A934208D1FB68DA
:102D8C0023F44073FB603B68DB68FA681343FB6019
:102D9C00FB6823F080023B685B691343FB607B6834
:102DAC00FA681A603B689A687B68DA623B681A6852
:102DBC007B689A627B680D4A934203D13B681A691F
:102DCC007B681A637B6801225A617B681B6903F07C
:102DDC000103002B05D07B681B6923F001027B6883
:102DEC001A6100BF1437BD4680BC7047002C0140EF
:102DFC00000400400008004080B487B000AFF860C9
:102E0C00B9607A60FB681B6A7B61FB681B6A23F004
:102E1C000102FB681A62FB689B693B613B6923F00A
:102E2C00F0033B617B681B013A6913433B617B698F
:102E3C0023F00A037B617A69BB6813437B61FB68EF
:102E4C003A699A61FB687A691A6200BF1C37BD4601
:102E5C0080BC704780B487B000AFF860B9607A600E
:102E6C00FB681B6A7B61FB681B6A23F01002FB6822
:102E7C001A62FB689B693B613B6923F470433B61BD
:102E8C007B681B033A6913433B617B6923F0A00306
:102E9C007B61BB681B017A6913437B61FB683A69F0
:102EAC009A61FB687A691A6200BF1C37BD4680BC08
:102EBC00704780B485B000AF786039607B689B68E0
:102ECC00FB60FB6823F07003FB603A68FB681343FC
:102EDC0043F00703FB607B68FA689A6000BF143705
:102EEC00BD4680BC704780B487B000AFF860B96055
:102EFC007A603B60FB689B687B617B6923F47F4352
:102F0C007B613B681A027B681A43BB6813437A697E
:102F1C0013437B61FB687A699A6000BF1C37BD461E
:102F2C0080BC704780B485B000AF786039607B6836
:102F3C0093F83C30012B01D1022346E07B6801223F
:102F4C0083F83C207B68022283F83D207B681B6859
:102F5C005B68FB607B681B689B68BB60FB6823F04D
:102F6C007003FB603B681B68FA681343FB607B686B
:102F7C001B68FA685A607B681B68164A93420ED02D
:102F8C007B681B68B3F1804F09D07B681B68124AC1
:102F9C00934204D07B681B68104A93420CD1BB68E7
:102FAC0023F08003BB603B685B68BA681343BB606B
:102FBC007B681B68BA689A607B68012283F83D20A5
:102FCC007B68002283F83C20002318461437BD464A
:102FDC0080BC7047002C01400004004000080040F9
:102FEC0003460244934200D1704703F8011BF9E7F2
:102FFC0070B500260C4D0D4C641BA410A64209D1D3
:10300C0000F01AF800260A4D0A4C641BA410A642C4
:10301C0005D170BD55F8043B98470136EEE755F8DD
:10302C00043B98470136F2E77C4B00087C4B0008C8
:10303C007C4B0008804B0008F8B500BFF8BC08BCFE
:10304C009E467047F8B500BFF8BC08BC9E4670475A
:10305C0044454D2D43000000456E7669726F6E6DD0
:10306C00656E74004D6F6E69746F720032302E3560
:10307C002043000035302E3920250000410000008F
:10308C004D454E55000000004F4E00000000000062
:10309C000000000000000000000000000000000024
:1030AC0000100010001000100010001000000010A4
:1030BC00000000000028002800280000000000008C
:1030CC00000000000000000000240024007C00240C
:1030DC000048007C00480048000000000038005404
:1030EC000050003800140054005400380010000048
:1030FC000020005400580030002800540014000830
:10310C0000000000001000280028001000340048C7
:10311C0000480034000000000010001000100000F7
:10312C00000000000000000000000000000800107B
:10313C0000200020002000200020002000100008AB
:10314C000020001000080008000800080008000813
:10315C0000100020001000380010002800000000B3
:10316C000000000000000000000000000010001033
:10317C00007C0010001000000000000000000000A7
:10318C000000000000000000000000100010001003
:10319C0000000000000000000000003800000000EB
:1031AC000000000000000000000000000000000013
:1031BC0000000010000000000008000800100010C3
:1031CC000010001000200020000000000038004417
:1031DC000044005400440044004400380000000047
:1031EC0000100030005000100010001000100010F3
:1031FC0000000000003800440044000400080010E7
:10320C000020007C0000000000380044000400187E
:10321C0000040004004400380000000000080018FE
:10322C00002800280048007C00080008000000006E
:10323C00007C00400040007800040004004400388A
:10324C0000000000003800440040007800440044B6
:10325C000044003800000000007C0004000800104E
:10326C000010002000200020000000000038004466
:10327C0000440038004400440044003800000000C2
:10328C000038004400440044003C00040044003872
:10329C000000000000000000001000000000000012
:1032AC0000000010000000000000000000000010F2
:1032BC0000000000000000100010001000000000D2
:1032CC00000C003000400030000C0000000000003A
:1032DC00000000000000007C0000007C00000000EA
:1032EC00000000000000000000600018000400183E
:1032FC0000600000000000000038004400040008DA
:10330C000010001000000010000000000038004405
:10331C00004C0054005C00400040003800000000ED
:10332C0000100028002800280028007C00440044DD
:10333C000000000000780044004400780044004481
:10334C0000440078000000000038004400400040B9
:10335C0000400040004400380000000000700048AD
:10336C000044004400440044004800700000000089
:10337C00007C00400040007C004000400040007C8D
:10338C0000000000007C004000400078004000403D
:10339C0000400040000000000038004400400040A5
:1033AC00005C00440044003800000000004400446D
:1033BC000044007C00440044004400440000000031
:1033CC000038001000100010001000100010003821
:1033DC0000000000000400040004000400040004C9
:1033EC000044003800000000004400480050006019
:1033FC00005000480048004400000000004000401D
:10340C0000400040004000400040007C00000000F4
:10341C000044006C006C0054004400440044004420
:10342C000000000000440064006400540054004C90
:10343C00004C0044000000000038004400440044EC
:10344C0000440044004400380000000000780044B0
:10345C0000440044007800400040004000000000A0
:10346C000038004400440044004400440054003838
:10347C000004000000780044004400440078004838
:10348C0000480044000000000038004400400030B8
:10349C00000800040044003800000000007C00100C
:1034AC0000100010001000100010001000000000B0
:1034BC0000440044004400440044004400440038EC
:1034CC0000000000004400440044002800280028AC
:1034DC000010001000000000004400440054005490
:1034EC000054006C00280028000000000044002854
:1034FC0000280010001000280028004400000000E4
:10350C000044004400280028001000100010001097
:10351C0000000000007C00040008001000100020D7
:10352C000040007C0000000000180010001000108B
:10353C0000100010001000100010001800200020D7
:10354C00001000100010001000080008000000001F
:10355C0000300010001000100010001000100010BF
:10356C00001000300010002800280044000000006B
:10357C00000000000000000000000000000000003F
:10358C000000000000000000000000FE0020001001
:10359C00000000000000000000000000000000001F
:1035AC000000000000380044003C0044004C003493
:1035BC00000000000040004000580064004400443B
:1035CC0000640058000000000000000000380044B7
:1035DC0000400040004400380000000000040004DB
:1035EC000034004C00440044004C00340000000047
:1035FC000000000000380044007C0040004400380B
:10360C0000000000000C0010007C001000100010E6
:10361C000010001000000000000000000034004CFE
:10362C0000440044004C003400040078004000408A
:10363C0000580064004400440044004400000000B2
:10364C00001000000070001000100010001000109E
:10365C0000000000001000000070001000100010AE
:10366C0000100010001000E0004000400048005026
:10367C000060005000480044000000000070001082
:10368C0000100010001000100010001000000000CE
:10369C000000000000780054005400540054005402
:1036AC0000000000000000000058006400440044CA
:1036BC0000440044000000000000000000380044FA
:1036CC0000440044004400380000000000000000EA
:1036DC00005800640044004400640058004000405E
:1036EC00000000000034004C00440044004C003446
:1036FC00000400040000000000580064004000407A
:10370C0000400040000000000000000000380044B1
:10371C0000300008004400380000000000200020A9
:10372C00007800200020002000200018000000007D
:10373C00000000000044004400440044004C0034ED
:10374C000000000000000000004400440028002895
:10375C00002800100000000000000000005400547D
:10376C000054006C0028002800000000000000003D
:10377C000044002800100010002800440000000045
:10378C000000000000440044002800280010001035
:10379C000010006000000000007C000800100020F9
:1037AC000040007C00000000001800100010001009
:1037BC000020002000100010001000180010001055
:1037CC00001000100010001000100010001000106D
:1037DC00003000100010001000080008001000104D
:1037EC00001000300000000000000074004C0000CD
:1037FC0000000000000000000000000000000000BD
:10380C0000000000000000000000000000000000AC
:10381C00000000000000000000000000000000009C
:10382C00000000000000000000000000E003E003C6
:10383C00E003E003E003E003E003E003C003C003A4
:10384C00C001C001C001C001C001000000000000A7
:10385C00E003E003E00300000000000000000000B3
:10386C003C1E3C1E3C1E3C1E3C1E3C1E3C1E0000D6
:10387C00000000000000000000000000000000003C
:10388C00000000000000000000000000000000002C
:10389C0000000000CE01CE03DE039E039C039C07B8
:1038AC00FF3FFF7F3807380F780F780F780EFFFF38
:1038BC00FFFFF01EF01CE01CE03CE03DE039000096
:1038CC000000000000000000FC03FE0FEE1FE01ED5
:1038DC00E01EE01EE01EE01FE00FE007F003FC011D
:1038EC00FE01FE01FE01FE01FE01FE01FE3DFC3F5C
:1038FC00F00FE001E001000000000000033E07F7BC
:10390C008FE78EE79EE3BCE3B8E7F8E7F0F7E03F1C
:10391C00C001FF03FF07F307F30FF31EF33CF3386B
:10392C00F3787FF03FE00000000000000000000092
:10393C00E007F80F780F781F781F781F780FF00FBB
:10394C00E00F801FC37FC3FBE7F3F7F1F7F0FFF045
:10395C007FF03EF87F7CFF3FEF1F0000000000006F
:10396C0000000000E003E003E003E003E003C00319
:10397C00C00100000000000000000000000000007A
:10398C00000000000000000000000000000000002B
:10399C0000000000000000003F007C00F001E0018E
:1039AC00C003C00780078007800F000F000F000FB7
:1039BC00000F000F000F800F80078007C007C003A7
:1039CC00E001F0017C003F000F000000007E001FB2
:1039DC00C007C003E001F001F000F000F80078002F
:1039EC0078007800780078007800F800F000F0009B
:1039FC00F001E001C003C007001F007E007800004A
:103A0C00E003C003C001CE39FF3F7F3F20037003AA
:103A1C00F807780F3C1F380600000000000000007B
:103A2C00000000000000000000000000000000008A
:103A3C00000000000000000000000000000000007A
:103A4C00C001C001C001C001C001C001C001FFFF25
:103A5C00FFFFC001C001C001C001C001C0010000D6
:103A6C00000000000000000000000000000000004A
:103A7C00000000000000000000000000000000003A
:103A8C0000000000000000000000E003E003E00381
:103A9C00E003E001E001E001C00180030000000050
:103AAC00000000000000000000000000000000000A
:103ABC000000FE3FFE3F0000000000000000000080
:103ACC0000000000000000000000000000000000EA
:103ADC0000000000000000000000000000000000DA
:103AEC0000000000000000000000000000000000CA
:103AFC000000E003E003E003E0030000000000002E
:103B0C00000000000F000F001E001E003C003C00D7
:103B1C0078007800F000F000E001E001C003C00381
:103B2C0080078007000F000F001E001E003C003CA9
:103B3C000078007800F00000F007F80F7C1F3E3E84
:103B4C001E3C1F7C1F7C0F780F780F780F780F7836
:103B5C000F780F781F7C1F7C1E3C3E3E7C1FF80F9D
:103B6C00F00700000000000000000000F000F0076B
:103B7C00F03FF03FF001F001F001F001F001F00135
:103B8C00F001F001F001F001F001F001F001F001A1
:103B9C00F001FF3FFF3F00000000000000000000AC
:103BAC00E00FF83F7C3C3C003E003E003E003C00F9
:103BBC003C007C00F800F001E003C0078007000F18
:103BCC00001E003E003CFE3FFE3F000000000000D7
:103BDC0000000000F00FF81F7C1C3E003E003E0071
:103BEC003C003C00F800F00FF80F7C003E001E007B
:103BFC001E001E001E003E007C1CF81FE01F000073
:103C0C0000000000000000007800F800F800F80147
:103C1C00F803F807F807780F781E781E783C787848
:103C2C007878FFFFFFFF7800780078007800780044
:103C3C00780000000000000000000000FC1FFC1FCA
:103C4C00FC1F001E001E001E001E001EE01FF81FA1
:103C5C00FC007C003E003E001E003E003E003C008E
:103C6C007C1CF81FE01F000000000000000000009A
:103C7C00FC01FE078E0F001F001E003E003C003CA6
:103C8C00F83DFC3F3E7F1F7E0F3C0F3C0F3C0F3C32
:103C9C000F3E1F1E3E1FFC0FF00300000000000033
:103CAC0000000000FF3FFF3FFF3F0F001E001E0003
:103CBC003C0038007800F000F000E001E001C003A7
:103CCC00C0038007800F800F000F001F001F000033
:103CDC000000000000000000F807FC0F3E1F1E1E35
:103CEC001E3E1E3E1E1E3C1FF80FF007F80FFC1E5A
:103CFC003E3E1F3C1F7C0F7C0F7C1F3C3E3FFC1F3D
:103D0C00F00700000000000000000000F007F80FB2
:103D1C007C1E3E3C1E3C1F7C1F7C1F7C1F7C1F3C62
:103D2C003F3EFF1FEF071F001E001E003E003C0021
:103D3C00F838F03FE01F0000000000000000000019
:103D4C00000000000000000000000000E003E003A1
:103D5C00E003E00300000000000000000000000091
:103D6C000000E003E003E003E003000000000000BB
:103D7C000000000000000000000000000000000037
:103D8C00E003E003E003E00300000000000000009B
:103D9C00000000000000E003E003E003E003E001AA
:103DAC00E001E001C00380030000000000000000FF
:103DBC000000000003000F003F00FC00F003C00FE8
:103DCC00003F00FE003FC00FF003FC003F000F005F
:103DDC0003000000000000000000000000000000D4
:103DEC0000000000000000000000000000000000C7
:103DFC00FFFFFFFF000000000000FFFFFFFF0000BF
:103E0C0000000000000000000000000000000000A6
:103E1C0000000000000000000000000000E000F8BE
:103E2C00007E801FE007F8017E001F007E00F80175
:103E3C00E007801F007E00F800E00000000000009A
:103E4C0000000000F01FFC3F3E381F381F381E00DA
:103E5C001E003C007800F000E001C003C003C00766
:103E6C00C007000000000000C007C007C00700002A
:103E7C000000000000000000F803FE0F1E1F0F3EA4
:103E8C007F3CFF78EF79C773C7F38FF38FF38FF312
:103E9C009FF39FF3FF73FF7BF779003C1C1FFC0F14
:103EAC00F80300000000000000000000000000000B
:103EBC000000E003E003F007F007F007780F780F3D
:103ECC007C0E3C1E3C1E3E3CFE3FFF3F1F780F7895
:103EDC000FF007F007F000000000000000000000E9
:103EEC00000000000000F83FFC3F3E3C1E3C1E3C26
:103EFC001E3C3E3C7C3CF03FF83F7E3C1F3C1F3C54
:103F0C000F3C0F3C1F3CFE3FF83F00000000000040
:103F1C0000000000000000000000FF01FF07871FE9
:103F2C00003E003C007C0078007800780078007837
:103F3C00007C007C003E003F831FFF07FF01000058
:103F4C000000000000000000000000000000F07FF6
:103F5C00FC7F7E781F781F780F780F780F780F789A
:103F6C000F780F780F780F781F781E787E78F87F8F
:103F7C00E07F0000000000000000000000000000D6
:103F8C000000FF3FFF3F003E003E003E003E003E73
:103F9C00003EFE3FFE3F003E003E003E003E003E27
:103FAC00003EFF3FFF3F000000000000000000004B
:103FBC00000000000000FF1FFF1F001E001E001E5F
:103FCC00001E001E001EFF1FFF1F001E001E001EF5
:103FDC00001E001E001E001E001E0000000000003F
:103FEC0000000000000000000000FE03FF0F871F10
:103FFC00003E007C007C007800F800F87FF87FF829
:10400C000F780F7C0F7C0F3E8F1FFF0FFE030000FD
:10401C0000000000000000000000000000001F7CF9
:10402C001F7C1F7C1F7C1F7C1F7C1F7C1F7CFF7FC9
:10403C00FF7F1F7C1F7C1F7C1F7C1F7C1F7C1F7CB9
:10404C001F7C0000000000000000000000000000C9
:10405C000000FF3FFF3FE003E003E003E003E00369
:10406C00E003E003E003E003E003E003E003E0032C
:10407C00E003FF3FFF3F00000000000000000000D5
:10408C00000000000000FC1FFC1F7C007C007C007A
:10409C007C007C007C007C007C007C007C007C0034
:1040AC0078007800F838F03FC03F000000000000B6
:1040BC00000000000000000000001F3C1E3C3C3CC7
:1040CC00783CF03CE03DE03FC03F803FC03FE03FEC
:1040DC00F03DF03C783C7C3C3E3C1F3C0F3C0000EF
:1040EC000000000000000000000000000000003E86
:1040FC00003E003E003E003E003E003E003E003EC4
:10410C00003E003E003E003E003E003E003EFF3FB3
:10411C00FF3F000000000000000000000000000055
:10412C0000001FF81FFC1FFC3FFE3FFE3FFE7FFF01
:10413C0077FF77FFF7F7E7F7E7F3E7F3C7F307F056
:10414C0007F007F007F0000000000000000000007E
:10415C000000000000000F7C0F7C0F7E0F7F0F7F94
:10416C008F7F8F7FCF7FEF7BEF79FF79FF78FF78A1
:10417C007F783F783F781F781F78000000000000A0
:10418C0000000000000000000000F007FC1F3E3E95
:10419C001F7C0F780F780FF80FF80FF80FF80FF847
:1041AC000FF80F780F781F7C3E3EFC1FF0070000C5
:1041BC000000000000000000000000000000FC3FB8
:1041CC00FF3F1F3E0F3E0F3E0F3E0F3E1F3E3F3E3A
:1041DC00FC3FF03F003E003E003E003E003E003EF5
:1041EC00003E000000000000000000000000000085
:1041FC000000F007FC1F3E3E1F7C0F780F780FF875
:10420C000FF80FF80FF80FF80FF80F780F781F7CD6
:10421C003E3EFC1FF8077C003F000F00030000002F
:10422C00000000000000F03FFC3F7E3C3E3C1E3C8A
:10423C001E3C3E3C3C3CFC3CF03FE03FF03DF83C3F
:10424C007C3C3E3C1E3C1F3C0F3C00000000000030
:10425C0000000000000000000000FC07FE1F0E3EE6
:10426C00003C003C003C003EC01FF80FFE037F00EA
:10427C001F000F000F001F203E3CFC3FF01F0000F2
:10428C000000000000000000000000000000FFFF24
:10429C00FFFFE003E003E003E003E003E003E003DF
:1042AC00E003E003E003E003E003E003E003E003EA
:1042BC00E00300000000000000000000000000000F
:1042CC0000000F7C0F7C0F7C0F7C0F7C0F7C0F7C15
:1042DC000F7C0F7C0F7C0F7C0F7C0F7C1E3C1E3CDC
:1042EC003E3EFC1FF0070000000000000000000034
:1042FC0000000000000007F007F007F80F780F7CB3
:10430C001E3C1E3C1E3E3C1E3C1F781F780FF80FB7
:10431C00F007F007F007E003E003000000000000E6
:10432C000000000000000000000003E003F003F0B8
:10433C0007F0E7F3E7F3E7F3E773F77BF77FFF7F2C
:10434C007F7F7F7F7E7F7E3F3E3E3E3E3E3E000037
:10435C00000000000000000000000000000007F852
:10436C000F7C1E3E3E3E3C1FF80FF007E007E003BB
:10437C00E003F007F80F7C0F7C1E3E3C1F780F7893
:10438C000FF0000000000000000000000000000022
:10439C00000007F807780F7C1E3C1E3E3C1F780F70
:1043AC00F80FF007E003E003E003E003E003E003B1
:1043BC00E003E003E0030000000000000000000048
:1043CC00000000000000FF7FFF7F0F001F003E0079
:1043DC007C00F800F000E001E003C007800F000F44
:1043EC00001E003E007CFF7FFF7F000000000000ED
:1043FC0000000000FF078007800780078007800708
:10440C008007800780078007800780078007800768
:10441C008007800780078007800780078007800758
:10442C008007FF07FF07000000780078003C003C85
:10443C00001E001E000F000F80078007C003C00382
:10444C00E001E001F000F000780078003C003C0056
:10445C001E001E000F000F0007000000F07FF00090
:10446C00F000F000F000F000F000F000F000F000C0
:10447C00F000F000F000F000F000F000F000F000B0
:10448C00F000F000F000F000F000F07FF07F000092
:10449C00C000C001C001E003E003F007F00778079B
:1044AC00780F380F3C1E3C1E1E3C1E3C0F380F78FC
:1044BC000778000000000000000000000000000071
:1044CC0000000000000000000000000000000000E0
:1044DC0000000000000000000000000000000000D0
:1044EC000000000000000000000000000000FFFFC2
:1044FC00FFFF000000000000F000000000000000C2
:10450C00000000000000000000000000000000009F
:10451C00000000000000000000000000000000008F
:10452C00000000000000000000000000000000007F
:10453C000000000000000000F80FFC3F7C3C3E0037
:10454C003E003E00FE07FE1F3E3E3E7C3E783E7C1B
:10455C007E7CFF3FCF1F0000000000000000000029
:10456C00003C003C003C003C003C003CF83DFE3F65
:10457C003E3F1F3E0F3C0F3C0F3C0F3C0F3C0F3C93
:10458C001F3C1E3C3E3FFC3FF03B00000000000087
:10459C00000000000000000000000000000000000F
:1045AC00FE03FF0F871F003E003E003C007C007C9A
:1045BC00007C003C003E003E871FFF0FFE03000006
:1045CC0000000000000000001F001F001F001F0063
:1045DC001F001F00FF07FF1F3F3E1F3C1F7C1F7C5F
:1045EC001F7C1F781F781F7C1F7C3F3C7F3EFF1F6A
:1045FC00DF0F0000000000000000000000000000C1
:10460C000000000000000000F803FC0F3E1F1E3EDF
:10461C001F3C1F7CFF7FFF7F007C007C003C003E2A
:10462C00071FFF0FFE030000000000000000000049
:10463C00FF01E103C003C007C007C007FF7FFF7F76
:10464C00C007C007C007C007C007C007C007C00726
:10465C00C007C007C007C007C0070000000000006B
:10466C00000000000000000000000000000000003E
:10467C00EF07FF1F7F3E1F3C1F7C1F7C1F781F789E
:10468C001F781F7C1F7C3F3C7F3EFF1FDF0F1E00EF
:10469C001E001E007C38F83F003C003C003C003CF7
:1046AC00003C003CFC3DFE3F9E3F1F3F1F3E1F3C1D
:1046BC001F3C1F3C1F3C1F3C1F3C1F3C1F3C1F3C16
:1046CC001F3C00000000000000000000F001F001A1
:1046DC000000000000000000E07FE07FE001E0014E
:1046EC00E001E001E001E001E001E001E001E001B6
:1046FC00E001E001E001000000000000000000000B
:10470C00F800F8000000000000000000F83FF83F3F
:10471C00F800F800F800F800F800F800F800F800CD
:10472C00F800F800F800F800F800F800F800F000C5
:10473C00F071E07F003C003C003C003C003C003C45
:10474C001F3C3E3C7C3CF83CF03DE03DC03FC03F54
:10475C00E03FF03DF83C7C3C3E3C1F3C1F3C0000E5
:10476C000000000000000000F07FF001F001F001FB
:10477C00F001F001F001F001F001F001F001F001A5
:10478C00F001F001F001F001F001F001F001F00195
:10479C00F00100000000000000000000000000001C
:1047AC0000000000000000009EF7FFFFFFFFFFFF6E
:1047BC00E7FBE7F9C7F1C7F1C7F1C7F1C7F1C7F1DB
:1047CC00C7F1C7F1C7F100000000000000000000B5
:1047DC00000000000000000000000000FC3DFE3F57
:1047EC009E3F1F3F1F3E1F3C1F3C1F3C1F3C1F3C5E
:1047FC001F3C1F3C1F3C1F3C1F3C000000000000E6
:10480C00000000000000000000000000000000009C
:10481C00F007FC1F3E3E1F3C1F7C0F780F780F7873
:10482C000F780F781F7C1F3C3E3EFC1FF0070000EA
:10483C00000000000000000000000000000000006C
:10484C0000000000F83DFE3F3E3F1F3E0F3C0F3C7A
:10485C000F3C0F3C0F3C0F3C1F3C1E3E3E3FFC3FB1
:10486C00F83F003C003C003C003C003C00000000D9
:10487C000000000000000000EE07FE1F7E3E1E3C04
:10488C001E7C1E781E781E781E781E781E7C3E7C40
:10489C007E3EFE1FDE0F1E001E001E001E001E00B0
:1048AC000000000000000000000000007F1FFF1F40
:1048BC00E71FC71F871F001F001F001F001F001FBF
:1048CC00001F001F001F001F001F00000000000041
:1048DC0000000000000000000000000000000000CC
:1048EC00FC07FE1F0E1E003E003E003FE01FFC07B3
:1048FC00FE003E001E001E003E3CFC3FF01F000070
:10490C000000000000000000000000000000800714
:10491C0080078007FF7FFF7F800780078007800765
:10492C00800780078007800780078007C007FF0388
:10493C00FF0100000000000000000000000000006B
:10494C0000000000000000001E3C1E3C1E3C1E3CF3
:10495C001E3C1E3C1E3C1E3C1E3C1E3C3E3C7E3CFB
:10496C00FE3EFE1FDE0F00000000000000000000F5
:10497C0000000000000000000000000007F00F78AD
:10498C000F781E3C1E3C1E3E3C1E3C1E780F780FC2
:10499C00F00FF007F007E003E00300000000000058
:1049AC0000000000000000000000000000000000FB
:1049BC0003F0E3F1E3F3E7F3F7F3F7F3F77F777F34
:1049CC007F7F7F7F7F7F3E3E3E3E3E3E3E3E0000F1
:1049DC0000000000000000000000000000000000CB
:1049EC00000000000F7C1E3E3C3E3C1FF80FF00701
:1049FC00F007E003F007F807F80F7C1E3E3E1F3C63
:104A0C001F78000000000000000000000000000003
:104A1C00000000000000000007F80F780F7C1E3C1F
:104A2C001E3C3C1E3C1E3C1F780FF80FF007F00795
:104A3C00E003E003C003C003C0038007800F007FC6
:104A4C00000000000000000000000000FF3FFF3FDE
:104A5C001F003E007C00F800F001E003C007800F4F
:104A6C00001F001E003CFF7FFF7F000000000000C5
:104A7C0000000000FE01E003C003C003C003C0033C
:104A8C00E001E001E001C001C003803F803FC003B2
:104A9C00C001E001E001E001C003C003C003C0039A
:104AAC00E003FE017E000000C001C001C001C00196
:104ABC00C001C001C001C001C001C001C001C001E2
:104ACC00C001C001C001C001C001C001C001C001D2
:104ADC00C001C001C001C001C0010000C03FE00323
:104AEC00E001E001E001E001C001C003C003C0012E
:104AFC00E001FE00FE00E001C001C003C003C001E4
:104B0C00E001E001E001E001E003C03F003F0000F4
:104B1C000000000000000000000000000000000089
:104B2C00000000000000073FC77FE773FFF17EF035
:104B3C000000000000000000000000000000000069
:104B4C00000000000000000000000000010203044F
:104B5C000607080900000000010203040203040513
:104B6C00060708090A0B0C0D0E0F101001020000AD
:044B7C0031010008FB
:044B80000D0100081B
:104B8400070A000098300008101A000004380008D2
:0C4B940000127A00100000000100000078
:04000005080010657A
:00000001FF
